:020000040800F2
:10000000002000200D170008351400083D140008DA
:1000100000000000000000000000000000000000E0
:10002000000000000000000000000000451400086F
:1000300000000000000000004F14000859140008E0
:100040005D170008000000005D1700085D1700083C
:100050005D1700085D1700085D1700085D170008B0
:10006000000000005D1700085D1700085D1700081C
:100070005D1700085D1700085D170008000000000C
:100080005D17000800000000000000005D17000878
:10009000000000005D1700085D1700085D170008EC
:1000A0005D1700085D1700085D1700086914000857
:0800B0005D17000800000000CC
:1000B80010B5064C2378002B07D1054B002B02D036
:1000C800044800E000BF0123237010BDF4000020A5
:1000D80000000000D0510008044B10B5002B03D0DD
:1000E8000349044800E000BF10BDC04600000000FE
:1000F800F8000020D051000803B4714649084000B8
:100108004900095E49008E4403BC70470022430839
:100118008B4274D303098B425FD3030A8B4244D3C7
:10012800030B8B4228D3030C8B420DD3FF22090209
:1001380012BA030C8B4202D31212090265D0030BC8
:100148008B4219D300E0090AC30B8B4201D3CB03BE
:10015800C01A5241830B8B4201D38B03C01A524100
:10016800430B8B4201D34B03C01A5241030B8B4202
:1001780001D30B03C01A5241C30A8B4201D3CB02ED
:10018800C01A5241830A8B4201D38B02C01A5241D2
:10019800430A8B4201D34B02C01A5241030A8B42D5
:1001A80001D30B02C01A5241CDD2C3098B4201D3ED
:1001B800CB01C01A524183098B4201D38B01C01A6B
:1001C800524143098B4201D34B01C01A52410309E2
:1001D8008B4201D30B01C01A5241C3088B4201D391
:1001E800CB00C01A524183088B4201D38B00C01A3E
:1001F800524143088B4201D34B00C01A5241411A65
:1002080000D20146524110467047FFE701B5002071
:1002180000F0F0F802BDC0460029F7D076E7704735
:1002280003460B437FD4002243088B4274D303094F
:100238008B425FD3030A8B4244D3030B8B4228D3F0
:10024800030C8B420DD3FF22090212BA030C8B4216
:1002580002D31212090265D0030B8B4219D300E0B6
:10026800090AC30B8B4201D3CB03C01A5241830B3B
:100278008B4201D38B03C01A5241430B8B4201D3EB
:100288004B03C01A5241030B8B4201D30B03C01A14
:100298005241C30A8B4201D3CB02C01A5241830A8E
:1002A8008B4201D38B02C01A5241430A8B4201D3BD
:1002B8004B02C01A5241030A8B4201D30B02C01AE7
:1002C8005241CDD2C3098B4201D3CB01C01A52414E
:1002D80083098B4201D38B01C01A524143098B42D7
:1002E80001D34B01C01A524103098B4201D30B01C0
:1002F800C01A5241C3088B4201D3CB00C01A5241E5
:1003080083088B4201D38B00C01A524143088B42A9
:1003180001D34B00C01A5241411A00D20146524142
:10032800104670475DE0CA0F00D04942031000D361
:100338004042534000229C4603098B422DD3030AB6
:100348008B4212D3FC22890112BA030A8B420CD3C6
:10035800890192118B4208D3890192118B4204D3EF
:1003680089013AD0921100E08909C3098B4201D36F
:10037800CB01C01A524183098B4201D38B01C01AA9
:10038800524143098B4201D34B01C01A5241030920
:100398008B4201D30B01C01A5241C3088B4201D3CF
:1003A800CB00C01A524183088B4201D38B00C01A7C
:1003B8005241D9D243088B4201D34B00C01A524153
:1003C800411A00D20146634652415B10104601D3E0
:1003D8004042002B00D54942704763465B1000D36A
:1003E800404201B5002000F005F802BD0029F8D010
:1003F80016E770477047C046B0B586B000AFF860E2
:10040800B9607A60BB68002B01D100233BE0BB6870
:10041800C82B01D9C823BB60FA681D4B9A4205D086
:10042800BA68F9681A4B180004F086FA194B0022CA
:100438001A70BB689AB217257C191549164B180013
:1004480002F06EFF030023707B191B78002B02D08B
:100458007B191B7817E001F0FBF903003B6109E009
:1004680001F0F6F902003B69D31A7A689A4201D87A
:10047800032308E0074B1B78DBB201225340DBB2B1
:10048800002BEDD100231800BD4606B0B0BDC04614
:100498001401002010010020440200200FB480B590
:1004A80084B000AFBB69002B01D101231EE01C23DF
:1004B800FB187B607B68BA691048C82104F0FCF916
:1004C8000300FB60FB68002B01DA01230EE0FB68E8
:1004D800C72B01DCFB6800E0C823BB60FA239A0045
:1004E800B968064B1800FFF787FF03001800BD46E0
:1004F80004B080BC08BC04B01847C04614010020F2
:1005080080B582B000AF78607B68002B01D10123F1
:1005180006E07A68044B11001800FFF7BFFF0300DC
:100528001800BD4602B080BDF8510008F0B587B08C
:1005380000AF0E00B91D0880391D301C088001204D
:100548004042C11738617961B91D09880804391D0D
:1005580009880143F9603969002001400A00796976
:10056800002081430B00F9680C0000210D001100E8
:10057800214339612B437B613A697B69100019007B
:10058800BD4607B0F0BD80B582B000AF3860796075
:10059800796809043868020C0A4379680B0C93B22D
:1005A8001800BD4602B080BD80B582B000AF38608B
:1005B80079603A687B68131C9BB21800BD4602B08C
:1005C80080BD0000B0B594B000AFBA4A4A217B188C
:1005D80012881A80B84A4823FB1812881A807B1898
:1005E8001B88B64A93420BD080225202934200DB0A
:1005F80054E1002B00D1DFE0B14A934259D04DE1DC
:100608004823FB181B88002B0DD1AA4B180000F0BB
:1006180061F9031E00D047E100F002FA031E00D181
:1006280042E1012352E14823FB181B88A44A934264
:1006380038D1A04B180000F04DF9031E21D1382401
:100648003B19180010231A00002104F041F93B1946
:1006580002221A603B190E229A603B190122DA60C5
:1006680001F038FB3423FA183B191100180001F087
:10067800E5FB031E03D001F051FB012326E101F045
:100688004DFB01F027FB8C4900220023012001F0DB
:10069800D3FA031E03D001F041FB012316E101F058
:1006A8003DFB01E100F0BCF9031E00D1FCE0012391
:1006B8000CE14823FB181B88002B5FD14E23FB1845
:1006C80000221A8022E04E243B191A887D4B5200E2
:1006D800D35A1E257A191100180000F01FF9031EBD
:1006E8000ED13B191A88774B5200D25A7B191B88B6
:1006F8001900100000F018FA031E01D00123E5E0EC
:100708004E217B181A887B1801321A804E23FB1859
:100718001B88022BD7D901F0DDFA66490022002395
:10072800012001F089FA031E03D001F0F7FA012332
:10073800CCE001F0F3FA24243B19180010231A0026
:10074800002104F0C5F83B1902221A603B190F2258
:100758009A603B190122DA6001F0BCFA2023FA18EA
:100768003B191100180001F069FB031E03D001F0CA
:10077800D5FA0123AAE001F0D1FA97E04823FB1843
:100788001B884E4A934210D101F0A4FA494900222D
:100798000023012001F050FA031E03D001F0BEFA35
:1007A800012393E001F0BAFA80E000F039F9031E62
:1007B80000D17BE0012389E04823FB181B88002B2C
:1007C80006D100F02DF9031E00D171E001237DE070
:1007D8004823FB181B88394A934200D168E04C2310
:1007E800FB1800221A8021E04C243B191A88354B4B
:1007F8005200D35ABA1D1100180000F08FF8031EDA
:100808000ED13B191A882F4B5200D25ABB1D1B8898
:100818001900100000F088F9031E01D0012355E0EB
:100828004C217B181A887B1801321A804C23FB183C
:100838001B88022BD8D901F04DFA1F49002200234A
:10084800012001F0F9F9031E03D001F067FA012332
:100858003CE001F063FA0C243B19180010231A003D
:10086800002104F035F83B1902221A603B190E22C8
:100878009A603B190122DA6001F02CFA0823FA1871
:100888003B191100180001F0D9FA031E03D001F03A
:1008980045FA01231AE001F041FA09E000F0C0F836
:1008A800031E11D0012311E0C0460EE0C0460CE043
:1008B800C0460AE00070000800780008FFFF00004A
:1008C800EEEE000004000020C04600231800BD46DC
:1008D80014B0B0BD80B586B000AF78607B68FF22E9
:1008E800D200944663447B610FE07B681A685B68BA
:1008F800BA60FB60BB68013302D1FB68013301D0E9
:10090800002307E07B6808337B607A687B699A423A
:10091800EBD901231800BD4606B080BDB0B58AB03A
:1009280000AF02003960BB1D1A8022257C19002007
:1009380000F0AEF8030023807B191B88AB2B01D194
:10094800AB2338E02223FB181B88002B01D11C4B5A
:1009580000E01C4BFB61FB69FF22D2009446634414
:100968007B6223E07B6A1A685B683A617B610E25CB
:100978007C193A697B6910001900FFF704FE03002F
:1009880023807A19BB1D12881B889A420BD13A69B9
:100998007B6910001900FFF707FE03001A003B6887
:1009A8001A80002307E07B6A083B7B627A6AFB694E
:1009B8009A42D7D801231800BD460AB0B0BDC04638
:1009C8000070000800780008B0B584B000AF0200DD
:1009D800BB1D1A803B1D0A1C1A800E257C193B1D65
:1009E8001A88BB1D1B881100180000F09DF8030031
:1009F80023807B191B88802B0AD17C193B1D1A8800
:100A0800BB1D1B881100180000F0EEF803002380BE
:100A18000E23FB181B881800BD4604B0B0BD0000AB
:100A280090B587B000AF08243B19180010231A00AE
:100A3800002103F04DFF3B1902221A603B190E22D8
:100A48009A603B190222DA6001F044F93A1D3B1919
:100A58001100180001F0F2F9031E03D001F05EF94D
:100A680001230EE0094900220023012001F0E4F8E7
:100A7800031E03D001F052F9012302E001F04EF900
:100A880000231800BD4607B090BDC046007000089E
:100A980080B584B000AF0200FB1D1A701F4A0E21FA
:100AA8007B1812881A801E4A0C203B1812881A805C
:100AB800FB1D1B78012B1DD13B181B88002B08D16F
:100AC8007B181B88174A944663445A1E9341DBB22D
:100AD8001FE00E23FB181B88002B09D10C23FB18E1
:100AE8001B88104A944663445A425341DBB210E0D3
:100AF800AB230EE00E23FB181B88002B01D100232B
:100B080007E00C23FB181B88002B01D1012300E010
:100B1800AB231800BD4604B080BDC0460070000875
:100B2800007800081211FFFFB0B58CB000AF0200CA
:100B3800BB1D1A803B1D0A1C1A802A257C1901201E
:100B4800FFF7A6FF030023807B191B88AB2B01D17D
:100B5800AB2340E02A23FB181B88002B01D1204B34
:100B680000E0204BFB62FB6A80221201944663443A
:100B78007B622BE0FB6A1A685B68BA61FB61BB6940
:100B8800013320D1FB6901331DD13B1D1A88BB1DE0
:100B98001B8811001800FFF7C9FC02000B003A611E
:100BA8007B6101F097F80F257C193A697B69F96A2E
:100BB800012001F041F80300237001F0AFF87B1920
:100BC8001B789BB207E0FB6A0833FB62FA6A7B6A10
:100BD8009A42CFD380231800BD460CB0B0BDC046A2
:100BE8000070000800780008B0B58CB000AF0200B3
:100BF800BB1D1A803B1D0A1C1A802C257C1900205D
:100C0800FFF746FF030023807B191B88AB2B01D11C
:100C1800AB2392E02C23FB181B88012B01D1494BF5
:100C280000E0494BBB622C23FB181B88012B01D128
:100C38000F2300E00E237B6201F04CF8434A0023A7
:100C4800B96A012000F0F8FF031E03D001F066F82E
:100C5800012372E001F062F83B1D1A88BB1D1B8856
:100C680011001800FFF760FF031E01D0012364E0A4
:100C78002E23FB1800221A802BE02E23FB1819883C
:100C880022243B19324A49008A5A1A803A19BB1D54
:100C980012881B889A4215D00A257A193B191B8895
:100CA80011001800FFF73AFE031E0CD17B191A88B1
:100CB8003B191B8811001800FFF736FF031E02D0EE
:100CC80001233AE0C0462E217B181A887B1801328E
:100CD8001A802E23FB181B88022BCED910243B190F
:100CE800180010231A00002103F0F2FD3B1902221C
:100CF8001A603B197A6A9A603B190122DA6000F09F
:100D0800E9FF0C23FA183B191100180001F096F8B6
:100D1800031E03D001F002F801230EE0B96A002295
:100D28000023012000F088FF031E03D000F0F6FF27
:100D3800012302E000F0F2FF00231800BD460CB0CA
:100D4800B0BDC0460070000800780008EEEE000054
:100D58000400002090B589B000AF0C243B1918009E
:100D680014231A00002103F0B3FD2A4B5A6B294BB8
:100D780002210A435A63274B5B6B02221340BB6074
:100D8800BB68244B5A6B234B04210A435A63214BFB
:100D98005B6B042213407B607B681E4B5A6B1D4BB8
:100DA80001210A435A631B4B5B6B012213403B60D2
:100DB8003B68A023DB0500220C21180001F063FA30
:100DC8003B1903221A603B19902252035A603B19BF
:100DD80000229A603A19A023DB051100180001F0DF
:100DE800D1F821007B180C221A607B1801225A6066
:100DF8007B1800229A607B180022DA607A18A023F8
:100E0800DB051100180001F0BDF8C046BD4609B069
:100E180090BDC0460010024080B500AF00F09CFCB9
:100E280000F0A8F9FFF796FF00F0A8FB00F060FBC0
:100E380000F05CFCB64B1800FFF762FBFA239B003E
:100E4800180000F00FFDFFF7BDFB03001A00B14BBF
:100E58001A80B04B1B889BB2002B04D0AE4B1800F5
:100E6800FFF74EFB01E000F069FAAC4B1B7ADBB2EE
:100E7800012B18D1A023DB0501220821180001F05D
:100E880002FAA023DB0501220421180001F0FBF976
:100E9800A34B1800FFF734FBA24B01221A70A24B98
:100EA80000221A7014E0A023DB0500220821180094
:100EB80001F0E9F9A023DB0500220421180001F064
:100EC800E2F99A4B1800FFF71BFB964B00221A70A9
:100ED800924B5A68964B11001800FFF7DFFA8F4BB8
:100EE8001B7ADBB21A00934B11001800FFF7D6FAF1
:100EF8008D4B1B78002B0ED08F4B1800FFF700FB93
:100F080040BF20BF20BF00F0D1FC0221002001F02B
:100F1800F3F900F0D9FCA023DB050121180001F04A
:100F280095F90300012B02D1844B01221A70A023EA
:100F3800DB050221180001F089F90300012B03D118
:100F48007F4B01221A7002E07D4B00221A7000F0DC
:100F58007FFC02007B4B1A60784B1B78DBB2002BBE
:100F680005D1774B1B78DBB2002B00D1B4E0734B73
:100F78001B78DBB2002B57D0714B1B78DBB20122F8
:100F88005340DBB2002B4FD0644B5B685A1C634B59
:100F98005A60624B00221A72604B1B7ADAB26A4BB3
:100FA8001A706A4B1800FFF7ABFA5E4B00221A70F2
:100FB800674B1800FFF7A4FAA023DB0500220821DD
:100FC800180001F060F9A023DB05002204211800B5
:100FD80001F059F9514B5B689BB25E4A1900100049
:100FE800FFF7F2FC031E03D05B4B1800FFF788FAEB
:100FF8004A4B1B7ADBB21A00584B11001800FFF756
:10100800E3FC031E03D0564B1800FFF779FA4B4B4D
:1010180000221A704A4B00221A70434B01221A70A0
:10102800642000F01FFC57E0444B1B78DBB2012220
:101038005340DBB2002B4FD0414B1B78DBB2002B67
:101048004AD0484B1800FFF75BFA3F4B1B78DBB2DE
:10105800012B41D03C4B01221A70304B01221A72ED
:10106800394B1B78DBB2012B2FD12E4B1B78DBB20F
:1010780001225340DBB2002B27D0A023DB0501223D
:101088000821180001F0FFF8A023DB050122042144
:10109800180001F0F8F8344B1800FFF731FA204B2C
:1010A8001800FFF72DFA1F4B01221A701B4B1B7AF1
:1010B800DBB21A00294B11001800FFF785FC031E4C
:1010C80003D0274B1800FFF71BFA1E4B1A68274B53
:1010D8001A60154B00221A701A4B1A68234B1B68AA
:1010E800D21A234B1B689A4200D201E7164B1B7891
:1010F800DBB2012B00D0FBE6124B1A681B4B1A60BF
:10110800A023DB050821180001F0DAF8F0E6C04654
:10111800FC5100080000002010520008DC010020EB
:1011280034520008E90100200A0000204C5200084F
:101138006052000888520008B0520008EA010020F6
:10114800EB010020EC010020E8010020C852000853
:10115800D852000802100000F052000803100000E6
:10116800105300083453000850530008F0010020C1
:101178000C00002090B593B000AF14243B19180060
:1011880034231A00002103F0A3FB3B1D1800102391
:101198001A00002103F09CFB80239B00180001F03B
:1011A800E1F83B1902221A603B1980225200DA60EA
:1011B80021007B1800221A617B1840225A617B1893
:1011C8000222DA617B1802221A627B1800225A6214
:1011D8007B1808229A627B1880229202DA627B18B6
:1011E800802292051A637B18180001F04BF9031E40
:1011F80001D000F0F1F83B1D07221A603B1D0222C6
:101208005A603B1D00229A603B1D0022DA603B1D9C
:101218000221180001F046FC031E01D000F0DCF8A2
:10122800C046BD4613B090BD80B582B000AF7860AF
:101238007B681B68044A934202D1044B01221A704E
:10124800C046BD4602B080BD0038014010010020F4
:1012580090B585B000AF78600F243B1900221A7052
:101268007B681B88164A19001000FFF7ADFB031EA8
:1012780002D03B1901221A707B685B689BB2114A45
:1012880019001000FFF7A0FB031E03D00F23FB1863
:1012980001221A707B681B7A1A000B4B1100180088
:1012A800FFF792FB031E03D00F23FB1801221A70CD
:1012B8000F23FB181B781800BD4605B090BDC0462B
:1012C80001100000021000000310000090B585B066
:1012D80000AF78600E243B19154A19001000FFF77B
:1012E8001DFB031E03D13B191A887B681A800E2444
:1012F8003B19104A19001000FFF710FB031E04D118
:101308003B191B881A007B685A600E243B190A4A4D
:1013180019001000FFF702FB031E04D13B191B88BC
:10132800DAB27B681A72C046BD4605B090BDC046A9
:1013380001100000021000000310000080B500AF8B
:101348001D4B1800FFF7DCF81C4B0C22002118007D
:1013580003F0BEFA194B1800FFF7B8FF174B1B88AC
:101368009BB2174A93421CD0164B1800FFF7C8F8D7
:10137800124B134A1A80114B00225A600F4B00225D
:101388001A720E4B1800FFF763FF031E04D00E4BB2
:101398001800FFF7B5F80CE00C4B1800FFF7B0F891
:1013A80007E00B4B1800FFF7ABF80A4B1800FFF7E4
:1013B800A7F8C046BD4680BD64530008DC01002084
:1013C8004D7A00008C530008D4530008E4530008F9
:1013D800105400082854000880B500AF72B6C04603
:1013E800C046FDE780B582B000AF0F4B1A6C0E4BBC
:1013F80001210A431A640C4B1B6C012213407B60C9
:101408007B68094BDA6B084B802149050A43DA638C
:10141800054BDA6B80235B0513403B603B68C04695
:10142800BD4602B080BDC0460010024080B500AF86
:10143800C046FDE780B500AFC046FDE780B500AF08
:10144800C046BD4680BD80B500AFC046BD4680BD24
:1014580080B500AF00F0EAF9C046BD4680BD000087
:1014680080B500AF034B180002F002F8C046BD4635
:1014780080BDC0464402002080B586B000AF7860C9
:10148800144A154BD31A7B617B693B61134B1B686C
:10149800002B02D1114B124A1A60104B1A687B6854
:1014A800D3183A699A4207D203F01AFA03000C22B9
:1014B8001A6001235B4209E0084B1B68FB60074B7D
:1014C8001A687B68D218054B1A60FB681800BD467D
:1014D80006B080BD0020002000040000F4010020B8
:1014E8004004002080B500AFC046BD4680BD000066
:1014F80080B500AF0E4B0F4A1A600D4B3F225A6061
:101508000B4B00229A600A4B0B4ADA60084B002208
:101518001A61074B00229A61054B180001F092FDF1
:10152800031E01D0FFF758FFC046BD4680BDC04628
:10153800F801002000200040FFFF000080B584B0C3
:1015480000AF78607B681B680A4A93420DD10A4B4A
:101558001A6C094B802109020A431A64064B1A6C5B
:1015680080231B021340FB60FB68C046BD4604B0E5
:1015780080BDC046002000400010024080B500AF8A
:10158800234B244A1A60224B962292015A60204B20
:1015980000229A601E4B0022DA601D4B00221A615D
:1015A8001B4B0C225A611A4B00229A61184B0022DD
:1015B800DA61174B00221A62154B00225A62144B4B
:1015C80000229A62124B180001F054FE031E01D04B
:1015D800FFF702FF0E4B0021180003F05FF8031E0F
:1015E80001D0FFF7F9FE0A4B0021180003F096F826
:1015F800031E01D0FFF7F0FE054B180003F014F8A6
:10160800031E01D0FFF7E8FEC046BD4680BDC046B8
:10161800440200200038014090B591B000AF7860D6
:101628002C23FB18180014231A00002103F050F98A
:1016380014243B19180018231A00002103F048F954
:101648007B681B68264A934245D13B1901221A60E0
:101658003B1900225A603B19180001F0CDFB031E0C
:1016680001D0FFF7B9FE1F4B1A6C1E4B8021C90130
:101678000A431A641B4B1A6C8023DB0113403B613D
:101688003B69184B5A6B174B02210A435A63154B97
:101698005B6B02221340FB60FB682C217B18C02285
:1016A8001A607B1802225A607B1800229A607B1805
:1016B8000022DA607B1800221A617B180A4A190096
:1016C800100000F05FFC002200211B2000F0B6F99A
:1016D8001B2000F0C8F9C046BD4611B090BDC046F9
:1016E80000380140001002400004005080B500AFEF
:1016F800034B180001F0FEFCC046BD4680BDC04645
:10170800F80100200D488546FFF7ECFE0C480D490E
:101718000D4A002302E0D458C4500433C4188C4244
:10172800F9D30A4A0A4C002301E013600432A242AA
:10173800FBD303F0DBF8FFF76FFBFEE70020002088
:1017480000000020F400002000550008F4000020EC
:1017580040040020FEE7000080B582B000AFFB1D0A
:1017680000221A700B4B1A680A4B802149000A4361
:101778001A60032000F010F8031E03D0FB1D01229D
:101788001A7001E0FFF72EFEFB1D1B781800BD46FE
:1017980002B080BD0020024090B585B000AF7860EF
:1017A8000F23FB1800221A701D4B1B78002B2BD01F
:1017B8001C4B1C681A4B1B781900FA239800FEF77B
:1017C800A5FC030019002000FEF7A0FC0300180088
:1017D80000F059F9031E12D17B68032B0AD87968E7
:1017E80001235B420022180000F028F90E4B7A68AA
:1017F8001A600DE00F23FB1801221A7008E00F236E
:10180800FB1801221A7003E00F23FB1801221A703B
:101818000F23FB181B781800BD4605B090BDC046C5
:1018280018000020100000201400002080B500AF30
:10183800054B1B781A00054B1B68D218034B1A601E
:10184800C046BD4680BDC04618000020D802002012
:1018580080B500AF024B1B681800BD4680BDC0466E
:10186800D802002080B584B000AF7860FFF7F0FFA1
:101878000300BB607B68FB60FB68013305D00A4B43
:101888001B781A00FB689B18FB60C046FFF7E0FF57
:101898000200BB68D31AFA689A42F7D8C046C04615
:1018A800BD4604B080BDC0461800002080B500AF1A
:1018B800044B1A68034B02218A431A60C046BD468E
:1018C80080BDC04610E000E080B500AF044B1A6848
:1018D800034B02210A431A60C046BD4680BDC0467C
:1018E80010E000E080B582B000AF0200FB1D1A7066
:1018F800FB1D1B787F2B09D8FB1D1B781A001F23A3
:101908001A40044B012191400A001A60C046BD46A6
:1019180002B080BD00E100E090B583B000AF0200E6
:101928003960FB1D1A70FB1D1B787F2B28D82F4AA6
:10193800FB1D1B785BB29B08C0339B009B58FA1DAC
:101948001278110003220A40D200FF2191400A00B8
:10195800D2431A4011003B689B01FF221A40FB1D2D
:101968001B78180003230340DB009A401F48FB1D27
:101978001B785BB29B080A43C0339B001A5031E0C6
:101988001B4AFB1D1B7819000F230B40083B9B08C3
:1019980006339B00D31804331B68FA1D1278110014
:1019A80003220A40D200FF2191400A00D2431A4084
:1019B80011003B689B01FF221A40FB1D1B78180091
:1019C80003230340DB009A400948FB1D1B781C00D9
:1019D8000F232340083B9B080A4306339B00C31888
:1019E80004331A60C046BD4603B090BD00E100E074
:1019F80000ED00E080B582B000AF78607B685A1EC9
:101A080080235B049A4201D3012310E00A4B7A68D1
:101A1800013A5A6001235B4203211800FFF77CFF5B
:101A2800054B00229A60044B07221A600023180015
:101A3800BD4602B080BDC04610E000E080B584B06D
:101A480000AFB9607A600F217B18021C1A70BA685F
:101A58007B181B785BB211001800FFF75DFFC046CA
:101A6800BD4604B080BD80B582B000AF0200FB1D4A
:101A78001A70FB1D1B785BB21800FFF733FFC046D6
:101A8800BD4602B080BD80B582B000AF78607B688B
:101A98001800FFF7AFFF03001800BD4602B080BD75
:101AA80080B582B000AF78607B68002B01D101233C
:101AB80050E07B6825229B5CDBB2022B08D07B6858
:101AC8000422DA637B68242200219954012341E02F
:101AD8007B681B681A687B681B680E218A431A603A
:101AE8007B685B6C1A687B685B6C1C490A401A60EF
:101AF8007B681B681A687B681B6801218A431A6027
:101B0800174B59687B681B6C1C22134001229A40B2
:101B1800134B0A435A607B689B6C7A68D26C5A6094
:101B28007B681B6D002B0CD07B681B6D1A687B686B
:101B38001B6D0A490A401A607B685B6D7A68926D72
:101B48005A607B682522012199547B682422002150
:101B5800995400231800BD4602B080BDFFFEFFFF68
:101B68000000024080B584B000AF78600F217B1878
:101B780000221A707B6825229B5CDBB2022B06D000
:101B88007B680422DA637B1801221A7049E07B68BB
:101B98001B681A687B681B680E218A431A607B6879
:101BA8001B681A687B681B6801218A431A607B6876
:101BB8005B6C1A687B685B6C1D490A401A601D4B98
:101BC80059687B681B6C1C22134001229A40194BF0
:101BD8000A435A607B689B6C7A68D26C5A607B684F
:101BE8001B6D002B0CD07B681B6D1A687B681B6D06
:101BF8000F490A401A607B685B6D7A68926D5A607B
:101C08007B682522012199547B682422002199545C
:101C18007B689B6B002B04D07B689B6B7A681000F9
:101C280098470F23FB181B781800BD4604B080BDE9
:101C3800FFFEFFFF00000240B0B586B000AFF860BD
:101C4800B9603A607B60214B1B78012B01D10223DC
:101C580038E01E4B01221A701C4B00225A601725CF
:101C68007C19FA239B00180000F07AF8030023700F
:101C78007B191B78002B1FD1FB68012B06D13A6812
:101C88007B68B968080000F0B9F805E03A68BB68F5
:101C98001100180003F0A4FA1723FC18FA239B007C
:101CA800180000F05DF803002370094B5A69FB68BF
:101CB800D943074B0A405A61044B00221A70172374
:101CC800FB181B781800BD4606B0B0BDDC0200202A
:101CD8000020024080B582B000AFFB1D00221A70C0
:101CE8000B4B5B69002B0CDA094B0A4A9A60084BCC
:101CF800094A9A60064B5B69002B02DAFB1D012238
:101D08001A70FB1D1B781800BD4602B080BDC04686
:101D18000020024023016745AB89EFCD80B582B032
:101D280000AFFB1D01221A70FA239B00180000F077
:101D380017F80A4B5A69094B802109060A435A6168
:101D4800064B5B69002B02DAFB1D00221A70FB1D93
:101D58001B781800BD4602B080BDC0460020024076
:101D680080B584B000AF7860FFF772FD0300FB60B8
:101D780080235B02BB600CE07B68013309D0FFF76E
:101D880067FD0200FB68D31A7A689A4201D80323D8
:101D980028E0164B1B69BA681340EDD1134B1B6939
:101DA800134A1340BB60114B124A1A61BB68002BDF
:101DB80011D0114BBA685A60012313E07B680133D4
:101DC80009D0FFF745FD0200FB68D31A7A689A42EA
:101DD80001D8032306E0054B1A698023DB02134070
:101DE800ECD100231800BD4604B080BD002002409D
:101DF800FA830000FB830000DC020020B0B584B049
:101E080000AFF8603A607B600B4B5A690A4B0121BE
:101E18000A435A61FB683A681A60BFF36F8FC0467D
:101E28007B681C0000231D00FB68043322001A6035
:101E3800C046BD4604B0B0BD00200240B0B584B075
:101E480000AF78603960354B1B78012B01D1022334
:101E58005FE0324B01221A70304B00225A600F2586
:101E68007C19FA239B001800FFF77AFF0300237000
:101E78002C003B191B78002B45D17B6804225A6043
:101E88007B681B68042B0DD17B685B68180000F029
:101E980049F83C19FA239B001800FFF761FF03007B
:101EA800237030E03B68012252421A607B689B68CD
:101EB800BB601AE07B685B68BA681100180000F024
:101EC80045F80F257C19FA239B001800FFF748FFF7
:101ED800030023707B191B78002B03D03B68BA687A
:101EE8001A600AE0BB680133BB607B689A687B684C
:101EF800DB68D318BA689A42DCD3094B5A69084B95
:101F080002218A435A61054B00221A700F23FB18DD
:101F18001B781800BD4604B0B0BDC046DC020020E6
:101F28000020024080B582B000AF7860064B5A6945
:101F38007B681A43044B802149020A435A61C04610
:101F4800BD4602B080BDC0460020024080B584B0C6
:101F580000AF78603960084B5B69084A1340FB6042
:101F68003B68DA00FB681A43034B05490A435A6188
:101F7800C046BD4604B080BD0020024007E0FFFF18
:101F88000200010080B586B000AF78603960002398
:101F98007B6147E13B681B6801217A6991400A002F
:101FA8001340FB60FB68002B00D138E13B685B689D
:101FB80003221340012B05D03B685B6803221340C2
:101FC800022B30D17B689B683B617B695B000322F5
:101FD8009A401300DA433B6913403B613B68DA6877
:101FE8007B695B009A4013003A6913433B617B6845
:101FF8003A699A607B685B683B6101227B699A4019
:102008001300DA433B6913403B613B685B681B097B
:1020180001221A407B699A4013003A6913433B61D5
:102028007B683A695A603B685B6803221340032B5C
:1020380017D07B68DB683B617B695B0003229A40B1
:102048001300DA433B6913403B613B689A687B693C
:102058005B009A4013003A6913433B617B683A6915
:10206800DA603B685B6803221340022B23D17B694B
:10207800DA087B6808329200D3583B617B690722F3
:1020880013409B000F229A401300DA433B69134028
:102098003B613B681A697B6907210B409B009A40AA
:1020A80013003A6913433B617B69DA087B6808329D
:1020B80092003969D1507B681B683B617B695B0082
:1020C80003229A401300DA433B6913403B613B68A3
:1020D8005B6803221A407B695B009A4013003A69E7
:1020E80013433B617B683A691A603B685A68C023AE
:1020F8009B02134000D192E0504A7B699B08183339
:102108009B009B583B617B6903221340DB000F2235
:102118009A401300DA433B6913403B617A68A02375
:10212800DB059A4213D07B68454A93420DD07B6801
:10213800444A934207D07B68434A934201D1032320
:1021480006E0052304E0022302E0012300E0002367
:102158007A6903210A40D20093403A6913433B61EC
:1021680036497B699B0818339B003A695A50334BB0
:102178001B683B61FB68DA433B6913403B613B6882
:102188005A6880235B03134003D03A69FB68134302
:102198003B612A4B3A691A60284B5B683B61FB68D4
:1021A800DA433B6913403B613B685A6880239B03D1
:1021B800134003D03A69FB6813433B611F4B3A69EC
:1021C8005A601E4A8423D3583B61FB68DA433B6953
:1021D80013403B613B685A6880239B02134003D03D
:1021E8003A69FB6813433B61144984223B698B506D
:1021F800124A8023D3583B61FB68DA433B6913409A
:102208003B613B685A6880235B02134003D03A69FC
:10221800FB6813433B61094980223B698B507B690A
:1022280001337B613B681A687B69DA40131E00D072
:10223800B0E6C046C046BD4606B080BD00180240A4
:102248000004005000080050000C005080B584B015
:1022580000AF78600A00BB1C1A807B681B69BA1C37
:102268001288134004D00F23FB1801221A7003E0D0
:102278000F23FB1800221A700F23FB181B78180075
:10228800BD4604B080BD80B582B000AF786008005C
:102298001100BB1C021C1A807B1C0A1C1A707B1CB8
:1022A8001B78002B04D0BB1C1A887B689A6103E05A
:1022B800BB1C1A887B689A62C046BD4602B080BDC6
:1022C80080B584B000AF78600A00BB1C1A807B68B8
:1022D8005B69FB60BB1C1B88FA6813401A04FB6827
:1022E800DB43B91C09880B401A437B689A61C046D6
:1022F800BD4604B080BD000080B582B000AF7860F4
:102308000A00FB1C1A707B68002B08D0134B5A6913
:1023180080239B0013400CD100F064F809E00F4BB8
:102328005A6980239B00134003D000F069F8031E0C
:102338000FD10B4B1A690A4B04218A431A61FB1C03
:102348001B78012B01D130BF04E040BF20BF20BF64
:1023580000E0C046BD4602B080BDC04600700040E7
:1023680000ED00E080B584B000AF7860194B1B68C1
:10237800194A13401900174B7A680A431A607A6899
:1023880080239B009A421FD1144B1A6813005B00EC
:102398009B185B0012491800FDF7B8FE03000133D3
:1023A800FB6008E0FB68002B03D0FB68013BFB6087
:1023B80001E0032309E0074B5A698023DB001A4038
:1023C8008023DB009A42EDD000231800BD4604B0FC
:1023D80080BDC04600700040FFF9FFFF10000020DC
:1023E80040420F0080B500AF044B1A68034B8021B0
:1023F800C9010A431A60C046BD4680BD007000404E
:1024080080B582B000AF154B1A6813005B009B18AB
:102418005B0013491800FDF779FE030001337B6068
:10242800104B1A680F4B10490A401A6008E07B6885
:10243800002B03D07B68013B7B6001E0032309E0AC
:10244800084B5A6980239B001A4080239B009A42BC
:10245800EDD000231800BD4602B080BD100000205A
:1024680040420F0000700040FFBFFFFF80B500AF83
:10247800034B9A68E023DB0113401800BD4680BD7A
:102488000010024080B588B000AF78607B68002BF0
:1024980001D10123F3E27B681B680122134000D1BC
:1024A8007CE0C34B9B6838221340BB61C04BDB68A0
:1024B800032213407B61BB69102B02D17B69032B7C
:1024C80002D0BB69082B0BD1B94B1A6880239B0239
:1024D800134062D07B685B68002B5ED10123CEE29B
:1024E8007B685A6880235B029A4207D1B04B1A680E
:1024F800AF4B802149020A431A6020E07B685A6882
:10250800A023DB029A420ED1A94B1A68A84B80215E
:10251800C9020A431A60A64B1A68A54B80214902D2
:102528000A431A600BE0A24B1A68A14BA1490A4062
:102538001A609F4B1A689E4B9F490A401A607B6835
:102548005B68002B14D0FFF783F903003B6108E0B8
:10255800FFF77EF902003B69D31A642B01D90323E4
:102568008DE2934B1A6880239B021340F0D015E04C
:10257800FFF76EF903003B6108E0FFF769F9020015
:102588003B69D31A642B01D9032378E2884B1A6874
:1025980080239B021340F0D100E0C0467B681B6893
:1025A8000222134000D199E0814B9B6838221340E6
:1025B800BB617F4BDB68032213407B61BB69102B37
:1025C80002D17B69022B02D0BB69002B35D1784B35
:1025D8001A688023DB00134005D07B68DB68002B7A
:1025E80001D101234BE2724B5B68744A1340190016
:1025F8007B685B691A026E4B0A435A60BB69002B01
:1026080012D16B4B1B686E4A134019007B681A691C
:10261800674B0A431A60664B1B68DB0A07221340A4
:10262800684ADA40684B1A60684B1B681800FFF765
:10263800B3F8031E51D0012321E27B68DB68002B2D
:1026480030D05B4B1B685E4A134019007B681A69DF
:10265800574B0A431A60564B1A68554B802149005C
:102668000A431A60FFF7F4F803003B6108E0FFF73C
:10267800EFF802003B69D31A022B01D90323FEE1CC
:102688004B4B1A688023DB001340F0D0484B5B6843
:102698004A4A134019007B685B691A02444B0A4393
:1026A8005A601BE0424B1A68414B49490A401A607C
:1026B800FFF7CEF803003B6108E0FFF7C9F8020016
:1026C8003B69D31A022B01D90323D8E1384B1A6886
:1026D8008023DB001340F0D100E0C0467B681B6814
:1026E8000822134047D0324B9B6838221340182BDE
:1026F8000AD12F4B1B6E022213403CD07B689B698A
:10270800002B38D10123BAE17B689B69002B19D0D3
:10271800274B1A6E264B01210A431A66FFF798F8D1
:1027280003003B6108E0FFF793F802003B69D31A06
:10273800022B01D90323A2E11D4B1B6E0222134079
:10274800F1D018E01A4B1A6E194B01218A431A6608
:10275800FFF77EF803003B6108E0FFF779F8020015
:102768003B69D31A022B01D9032388E1104B1B6E56
:1027780002221340F1D17B681B680422134000D168
:10278800C6E01F23FB1800221A70094B9B683822E9
:102798001340202B1ED1064BDB6D0222134000D1C3
:1027A800B6E07B689B68002B00D0B1E0012366E1AE
:1027B80000100240FFFFFEFFFFFFFBFFFF80FFFF4F
:1027C800FFC7FFFF0024F4001000002014000020C1
:1027D800FFFEFFFFAC4BDA6B80235B05134001D192
:1027E800012300E00023002B11D0A74BDA6BA64B86
:1027F800802149050A43DA63A34BDA6B80235B0522
:102808001340FB60FB681F23FB1801221A709F4BC3
:102818001A6880235B0013401AD19C4B1A689B4BA3
:10282800802149000A431A60FFF712F803003B6150
:1028380008E0FFF70DF802003B69D31A022B01D913
:1028480003231CE1914B1A6880235B001340F0D0EE
:102858007B689B68012B06D18B4BDA6D8A4B012173
:102868000A43DA651CE07B689B68052B0CD1864B14
:10287800DA6D854B04210A43DA65834BDA6D824BA6
:1028880001210A43DA650BE07F4BDA6D7E4B0121AB
:102898008A43DA657C4BDA6D7B4B04218A43DA651F
:1028A8007B689B68002B14D0FEF7D2FF03003B61C6
:1028B80009E0FEF7CDFF02003B69D31A744A934240
:1028C80001D90323DBE0704BDB6D02221340F0D00B
:1028D80013E0FEF7BDFF03003B6109E0FEF7B8FF18
:1028E80002003B69D31A6A4A934201D90323C6E01E
:1028F800654BDB6D02221340F0D11F23FB181B78B8
:10290800012B05D1604BDA6B5F4B62490A40DA63F1
:102918007B68DB69002B00D1B0E05B4B9B683822F9
:102928001340102B00D178E07B68DB69022B53D170
:10293800554B1A68544B58490A401A60FEF788FFED
:1029480003003B6108E0FEF783FF02003B69D31AEE
:10295800022B01D9032392E04B4B1A6880239B0476
:102968001340F0D1484BDB684C4A134019007B6890
:102978001A6A7B685B6A1A437B689B6A1B021A4364
:102988007B68DB6A1A437B681B6B1A433E4B0A431E
:10299800DA603D4B1A683C4B802149040A431A60AF
:1029A800394BDA68384B802149050A43DA60FEF76B
:1029B8004FFF03003B6108E0FEF74AFF02003B6956
:1029C800D31A022B01D9032359E02F4B1A6880230D
:1029D8009B041340F0D051E02B4B1A682A4B2E4928
:1029E8000A401A60FEF734FF03003B6108E0FEF777
:1029F8002FFF02003B69D31A022B01D903233EE0C3
:102A0800214B1A6880239B041340F0D11E4BDA68CF
:102A18001D4B23490A40DA6030E07B68DB69012BF3
:102A280001D101232BE0184BDB687B617B69032212
:102A38001A407B681B6A9A421ED17B6970221A4031
:102A48007B685B6A9A4217D17A69FE23DB011A40D8
:102A58007B689B6A1B029A420ED17A69F8239B0312
:102A68001A407B68DB6A9A4206D17B695B0F5A077A
:102A78007B681B6B9A4201D0012300E000231800F9
:102A8800BD4608B080BDC04600100240007000403E
:102A980088130000FFFFFFEFFFFFFFFE8C80C11FC0
:102AA800FCFFFEEF80B584B000AF786039607B68CA
:102AB800002B01D10123E9E0764B1B680722134064
:102AC8003A689A421ED9734B1B6807229343190030
:102AD800704B3A680A431A60FEF7BAFE0300FB60BF
:102AE80009E0FEF7B5FE0200FB68D31A6A4A934272
:102AF80001D90323CAE0674B1B68072213403A68D1
:102B08009A42EED17B681B680222134015D07B687D
:102B18001B680422134006D0604B9A685F4BE02183
:102B2800C9010A439A605D4B9B685D4A13401900CE
:102B38007B689A68594B0A439A607B681B68012234
:102B4800134057D07B685B68012B07D1534B1A6839
:102B580080239B0213402BD1012397E07B685B689D
:102B6800022B07D14D4B1A6880239B0413401FD1B9
:102B780001238BE07B685B68002B07D1474B1A6801
:102B88008023DB00134013D101237FE07B685B685F
:102B9800032B06D1414B1B6E0222134008D101239F
:102BA80074E03E4BDB6D0222134001D101236DE03E
:102BB8003A4B9B680722934319007B685A68374B46
:102BC8000A439A60FEF744FE0300FB6009E0FEF743
:102BD8003FFE0200FB68D31A2F4A934201D9032310
:102BE80054E02E4B9B6838221A407B685B68DB00F8
:102BF8009A42ECD1274B1B68072213403A689A4245
:102C08001ED2244B1B68072293431900214B3A68B4
:102C18000A431A60FEF71CFE0300FB6009E0FEF79A
:102C280017FE0200FB68D31A1B4A934201D90323FB
:102C38002CE0184B1B68072213403A689A42EED1E1
:102C48007B681B680422134009D0144B9B68154A03
:102C5800134019007B68DA68104B0A439A6000F049
:102C680029F801000D4B9B681B0A0F221A400E4BD6
:102C78009200D3581F2213400A00DA400B4B1A6007
:102C88000B4B1B681800FEF787FD03001800BD46B4
:102C980004B080BD002002408813000000100240EC
:102CA800FFF0FFFFFF8FFFFF3C54000810000020DB
:102CB8001400002080B586B000AF3C4B9B683822DA
:102CC80013400FD1394B1B68DB0A0722134001223E
:102CD8009A4013003B6039683548FDF717FA03003E
:102CE8003B615DE0314B9B6838221340082B02D1D1
:102CF800304B3B6154E02D4B9B6838221340102B1E
:102D080038D12A4BDB6803221340FB60274BDB6872
:102D18001B09072213400133BB60FB68032B0DD14D
:102D2800B9682448FDF7F2F9030019001F4BDB6866
:102D38001B0A7F2213404B437B610DE0B9681C4896
:102D4800FDF7E4F903001900184BDB681B0A7F2222
:102D580013404B437B61C046144BDB685B0F072273
:102D6800134001337B6079687869FDF7CFF9030078
:102D78003B6115E00D4B9B6838221340202B03D193
:102D880080231B023B610BE0084B9B6838221340F1
:102D9800182B03D1FA23DB013B6101E000233B61DF
:102DA8003B691800BD4606B080BDC0460010024011
:102DB8000024F40000127A0080B500AF024B1B68B3
:102DC8001800BD4680BDC04610000020B0B500AF59
:102DD800FFF7F2FF0400FFF749FB03001A0B054B4E
:102DE8009200D3581F221340DC4023001800BD4630
:102DF800B0BDC0467C54000880B586B000AF78608E
:102E08001323FB1800221A701223FB1800221A70D1
:102E18007B681A6880239B02134000D1A3E011202D
:102E28003B1800221A707F4BDA6B80235B05134036
:102E380010D17C4BDA6B7B4B802149050A43DA635E
:102E4800784BDA6B80235B051340BB60BB683B188B
:102E580001221A70744B1A68734B802149000A4387
:102E68001A60FEF7F5FC0300FB600BE0FEF7F0FCD0
:102E78000200FB68D31A022B04D91323FB18032280
:102E88001A7005E0684B1A6880235B001340EDD088
:102E98001323FB181B78002B54D1624BDA6DC02327
:102EA8009B0013407B617B69002B19D07B685B69B1
:102EB8007A699A4214D05B4BDB6D5C4A13407B61A4
:102EC800584BDA6D574B802149020A43DA65554B56
:102ED800DA6D544B56490A40DA65524B7A69DA651D
:102EE8007B690122134016D0FEF7B2FC0300FB6099
:102EF8000CE0FEF7ADFC0200FB68D31A4D4A934282
:102F080004D91323FB1803221A7004E0454BDB6D28
:102F180002221340EDD01323FB181B78002B0AD193
:102F2800404BDB6D414A134019007B685A693D4BA1
:102F38000A43DA650CE01223FB181322BA18127838
:102F48001A7005E01223FB181322BA1812781A70A7
:102F58001123FB181B78012B05D1324BDA6B314B4F
:102F680035490A40DA637B681B680122134009D09F
:102F78002C4B5B6D0322934319007B685A68294BDD
:102F88000A435A657B681B682022134009D0254BE9
:102F98005B6D2A4A134019007B689A68214B0A43E3
:102FA8005A657B681A688023DB01134015D01D4BD6
:102FB8005B6D9B0099087B681A691A4B0A435A652E
:102FC8007B681A698023DB059A4206D1154BDA68BB
:102FD800144B802149020A43DA607B681A6880230F
:102FE8001B01134016D00F4B5B6D154A1340190097
:102FF8007B68DA680B4B0A435A657B68DA6880237A
:10300800DB019A4206D1074BDA68064B8021490258
:103018000A43DA601223FB181B781800BD4606B075
:1030280080BDC0460010024000700040FFFCFFFF5A
:10303800FFFFFEFF88130000FFFFFFEFFFCFFFFF3A
:10304800FF3FFFFF80B582B000AF78607B68002B40
:1030580001D101234AE07B683D229B5CDBB2002B57
:1030680007D17B683C22002199547B681800FEF741
:1030780065FA7B683D22022199547B681A687B684F
:1030880004331900100000F07BF87B684822012106
:1030980099547B683E22012199547B683F22012183
:1030A80099547B684022012199547B68412201216F
:1030B80099547B684222012199547B68432201215B
:1030C80099547B684422012199547B684522012147
:1030D80099547B684622012199547B684722012133
:1030E80099547B683D220121995400231800BD465C
:1030F80002B080BD80B584B000AF78607B683D22A7
:103108009B5CDBB2012B01D001232FE07B683D22C1
:10311800022199547B681B68164A934204D07B6845
:103128001B68154A934216D17B681B689B68134A33
:103138001340FB60FB68062B16D0FA6880235B02FD
:103148009A4211D07B681B681A687B681B6801214A
:103158000A431A6008E07B681B681A687B681B686A
:1031680001210A431A6000E0C04600231800BD464A
:1031780004B080BD002C014000040040070001009D
:1031880080B584B000AF786039607B681B68FB60ED
:103198007B68324A934203D07B68314A934208D114
:1031A800FB6870229343FB603B685B68FA681343D3
:1031B800FB607B68294A93420FD07B68284A934278
:1031C8000BD07B68274A934207D07B68264A9342F4
:1031D80003D07B68254A934208D1FB68244A1340F0
:1031E800FB603B68DB68FA681343FB60FB6880227E
:1031F80093431A003B685B691343FB607B68FA687A
:103208001A603B689A687B68DA623B681A687B6870
:103218009A627B68114A934207D07B68124A9342AC
:1032280003D07B68114A934203D13B681A697B68D3
:103238001A637B6801225A617B681B69012213406B
:10324800012B06D17B681B69012293431A007B6816
:103258001A61C046BD4604B080BDC046002C01407E
:1032680000040040002000400044014000480140A4
:10327800FFFCFFFF80B582B000AF78607B68002B51
:1032880001D1012346E07B6888229B58002B07D197
:103298007B688422002199547B681800FEF7BCF9EA
:1032A8007B688822242199507B681B681A687B6890
:1032B8001B6801218A431A607B689B6A002B03D034
:1032C8007B68180000F078FD7B68180000F00AFCA5
:1032D8000300012B01D101231CE07B681B685A689D
:1032E8007B681B680D490A405A607B681B689A68AE
:1032F8007B681B682A218A439A607B681B681A6866
:103308007B681B6801210A431A607B68180000F07B
:1033180007FE03001800BD4602B080BDFFB7FFFFDF
:1033280080B58CB000AFF860B960BB1D1A80FB682F
:1033380088229B58202B00D08DE0BB68002B03D03F
:10334800BB1D1B88002B01D1012385E0FB689A680F
:1033580080235B019A4209D1FB681B69002B05D1C8
:10336800BB680122134001D0012375E0FB68BA68ED
:103378001A65FB68BA1D542112885A52FB68BA1D97
:10338800562112885A52FB6800229A67FB689022DD
:1033980000219950FB68882221219950FB685A6EB8
:1033A80080239B059A422AD1FB689A6880235B0197
:1033B8009A4207D1FB681B69002B03D1FB68284A96
:1033C8009A6702E0FB68274A9A67EFF31083FB616C
:1033D800FB69BB6201233B623B6A83F31088C046EA
:1033E800FB681B689A68FB681B68802109040A430C
:1033F8009A60BB6A7B627B6A83F3108829E0FB686A
:103408009A6880235B019A4207D1FB681B69002BED
:1034180003D1FB68144A9A6702E0FB68134A9A676B
:10342800EFF310833B613B69FB6201237B617B699E
:1034380083F31088C046FB681B681A68FB681B6822
:1034480080210A431A60FB6ABB61BB6983F3108859
:10345800C046002300E002231800BD460CB080BD22
:10346800B5440008C94300080B4300085742000848
:10347800B0B5AAB000AF78607B681B68DB69A4228E
:10348800B9180B607B681B681B68A02039180B6093
:103498007B681B689B689C2439190B601100BB185A
:1034A8001B68A24A13409822BD182B60BB181B68E2
:1034B800002B1AD17B181B682022134015D03B180B
:1034C8001B682022134005D13B191A6880235B052D
:1034D80013400AD07B685B6F002B00D1DCE27B686D
:1034E8005B6F7A6810009847D6E29823FB181B6830
:1034F800002B00D122E19C23FB181B688C4A134047
:1035080006D1A023FB181B688A4A134000D115E195
:10351800A423FB181B680122134012D0A023FB1818
:103528001A6880235B0013400BD07B681B6801225C
:103538001A627B6890229B5801221A437B6890216B
:103548005A50A423FB181B680222134011D09C2355
:10355800FB181B68012213400BD07B681B680222F2
:103568001A627B6890229B5804221A437B68902138
:103578005A50A423FB181B680422134011D09C2323
:10358800FB181B68012213400BD07B681B680422C0
:103598001A627B6890229B5802221A437B6890210A
:1035A8005A50A423FB181B680822134017D0A023E5
:1035B800FB181B682022134005D19C23FB181B68AD
:1035C8005B4A13400BD07B681B6808221A627B6831
:1035D80090229B5808221A437B6890215A50A423B2
:1035E800FB181A6880231B01134013D0A023FB1873
:1035F8001A688023DB0413400CD07B681B68802288
:1036080012011A627B6890229B5820221A437B6819
:1036180090215A507B6890229B58002B00D13DE2A4
:10362800A423FB181B682022134015D0A023FB18E5
:103638001B682022134006D19C23FB181A6880239C
:103648005B05134008D07B685B6F002B04D07B6858
:103658005B6F7A68100098477B6890229B5894218A
:103668007A1813607B681B689B6840221340402BC4
:1036780004D07B181B68282213404CD07B681800A4
:1036880000F068FD7B681B689B6840221340402B54
:103698003CD1EFF310833B663B6E90203A181360E1
:1036A80001237B667B6E83F31088C0467B681B68AA
:1036B8009A687B681B6840218A439A603B181B689C
:1036C800BB66BB6E83F31088C0467B6880229B581C
:1036D800002B16D07B6880229B58174A9A637B6818
:1036E80080229B581800FEF73DFA031E1CD07B6809
:1036F80080229B589B6B7A6880215258100098470B
:1037080012E07B68180000F0D9F90DE07B6818001A
:1037180000F0D4F908E07B68180000F0CFF97B6866
:10372800902200219950B9E1C046B7E10F08000086
:103738000100001020010004294200087B68DB6EAC
:10374800012B00D03EE1A423FB181B681022134074
:1037580000D137E1A023FB181B681022134000D1C9
:1037680030E17B681B6810221A627B681B689B68C3
:1037780040221340402B00D0A4E07B6880229B5855
:103788001B685A687E217B181A807B181B88002BBF
:1037980000D185E17B685C229B5A7A1812889A428C
:1037A80000D37DE17B687A185E2112885A527B68C3
:1037B80080229B581B681B682022134070D1EFF3AE
:1037C80010833B633B6BBB6701237B637B6B83F39A
:1037D8001088C0467B681B681A687B681B68B449F8
:1037E8000A401A60BB6FBB63BB6B83F31088C0468B
:1037F800EFF31083FB63FB6B7B6701233B643B6C3C
:1038080083F31088C0467B681B689A687B681B68CE
:1038180001218A439A607B6F7B647B6C83F31088F9
:10382800C046EFF31083BB64BB6C3B670123FB64AA
:10383800FB6C83F31088C0467B681B689A687B68BA
:103848001B6840218A439A603B6F3B653B6D83F35D
:103858001088C0467B688C22202199507B68002202
:10386800DA66EFF310837B657B6DFB660123BB652E
:10387800BB6D83F31088C0467B681B681A687B6839
:103888001B6810218A431A60FB6EFB65FB6D83F38E
:103898001088C0467B6880229B581800FEF700F904
:1038A8007B6802221A677B685C229A5A7B685E21D1
:1038B8005B5A9BB2D31A9AB27B681100180000F0C9
:1038C80005F9EDE07B685C22995A7B685E229B5A79
:1038D8009AB28E203B188A1A1A807B685E229B5AFD
:1038E8009BB2002B00D1DDE03B181B88002B00D1D8
:1038F800D8E0EFF31083FB60FB6888243A19136063
:1039080001233B613B6983F31088C0467B681B68D1
:103918001A687B681B6867490A401A603B191B686C
:103928007B617B6983F31088C046EFF31083BB612A
:10393800BB6984243A1913600123FB61FB6983F393
:103948001088C0467B681B689A687B681B685A4960
:103958000A409A603B191B683B623B6A83F31088F4
:10396800C0467B688C22202199507B680022DA6649
:103978007B6800225A67EFF310837B627B6A80249E
:103988003A1913600123BB62BB6A83F31088C046EF
:103998007B681B681A687B681B6810218A431A6059
:1039A8003B191B68FB62FB6A83F31088C0467B687F
:1039B80002221A673B181A887B681100180000F069
:1039C80085F86FE0A423FB181A6880235B03134073
:1039D80010D09C23FB181A688023DB03134009D0FE
:1039E8007B681B68802252031A627B68180000F00B
:1039F80003FE5AE0A423FB181B688022134016D04C
:103A0800A023FB181B688022134006D19C23FB18B7
:103A18001A6880231B04134009D07B689B6F002B16
:103A280042D07B689B6F7A68100098473CE0A423DB
:103A3800FB181B68402213400AD0A023FB181B6800
:103A48004022134004D07B68180000F0A9FD2CE048
:103A5800A423FB181A6880231B0413400BD0A0234F
:103A6800FB181A688023DB05134004D07B68180014
:103A780000F0D2FD19E0A423FB181A6880235B0428
:103A8800134012D0A023FB181B68002B0DDA7B68AB
:103A9800180000F0B9FD08E0C04606E0C04604E0A2
:103AA800C04602E0C04600E0C046BD462AB0B0BDF0
:103AB800FFFEFFFFDFFEFFFFFEFFFFEF80B582B0D6
:103AC80000AF7860C046BD4602B080BD80B582B008
:103AD80000AF78600A00BB1C1A80C046BD4602B021
:103AE80080BD000080B588B000AF78601A23FB184D
:103AF80000221A707B689A687B681B691A437B6886
:103B08005B691A437B68DB691343FB617B681B684D
:103B18001B68A14A134019007B681B68FA690A43AD
:103B28001A607B681B685B689C4A134019007B68B5
:103B3800DA687B681B680A435A607B689B69FB618B
:103B48007B681B6AFA691343FB617B681B689B6887
:103B5800934A134019007B681B68FA690A439A6004
:103B68007B681B68DB6A0F22934319007B685A6ADB
:103B78007B681B680A43DA627B681B68894A934240
:103B880027D1894B5B6D03221340032B17D01BD819
:103B9800022B0AD018D8002B02D0012B0AD013E030
:103BA8001B23FB1800221A7021E01B23FB1802229A
:103BB8001A701CE01B23FB1804221A7017E01B2341
:103BC800FB1808221A7012E01B23FB1810221A7027
:103BD8000DE07B681B68754A934204D11B23FB18D0
:103BE80000221A7003E01B23FB1810221A707B684E
:103BF800DA6980231B029A4200D065E01B23FB1878
:103C08001B78082B15D018DC042B0DD015DC002BE5
:103C180002D0022B05D010E0FFF7D8F803007B6133
:103C280012E0634B7B610FE0FFF744F803007B6110
:103C38000AE080231B027B6106E000237B611A23D4
:103C4800FB1801221A70C0467B69002B00D18DE059
:103C58007B685A6A574B5200D35A19007869FCF7A7
:103C680055FA03005A007B685B685B08D2187B68CA
:103C78005B6819001000FCF749FA03003B613B69D7
:103C88000F2B1CD93A6980235B029A4217D23B69F1
:103C98009AB20E203B180F218A431A803B695B08B1
:103CA8009BB20722134099B23B183A1812880A436C
:103CB8001A807B681B683A181288DA6056E01A2363
:103CC800FB1801221A7051E01B23FB181B78082BE4
:103CD80015D018DC042B0DD015DC002B02D0022BDC
:103CE80005D010E0FFF772F803007B6112E0304B5B
:103CF8007B610FE0FEF7DEFF03007B610AE08023B3
:103D08001B027B6106E000237B611A23FB1801225A
:103D18001A70C0467B69002B28D07B685A6A254BED
:103D28005200D35A19007869FCF7F0F903001A0019
:103D38007B685B685B08D2187B685B6819001000B9
:103D4800FCF7E4F903003B613B690F2B0AD93A6998
:103D580080235B029A4205D23B699AB27B681B6852
:103D6800DA6003E01A23FB1801221A707B686A22C2
:103D7800012199527B686822012199527B680022AF
:103D88005A677B6800229A671A23FB181B78180069
:103D9800BD4608B080BDC046F369FFCFFFCFFFFF27
:103DA800FFF4FF11003801400010024000440040B9
:103DB8000024F4009C54000880B582B000AF7860FD
:103DC8007B689B6A082213400BD07B681B685B6882
:103DD8004A4A134019007B689A6B7B681B680A4340
:103DE8005A607B689B6A012213400BD07B681B6872
:103DF8005B68434A134019007B68DA6A7B681B6872
:103E08000A435A607B689B6A022213400BD07B6886
:103E18001B685B683B4A134019007B681A6B7B6818
:103E28001B680A435A607B689B6A042213400BD0C4
:103E38007B681B685B68344A134019007B685A6BBF
:103E48007B681B680A435A607B689B6A1022134090
:103E58000BD07B681B689B682C4A134019007B6851
:103E6800DA6B7B681B680A439A607B689B6A20222E
:103E780013400BD07B681B689B68254A13401900C8
:103E88007B681A6C7B681B680A439A607B689B6A2C
:103E9800402213401DD07B681B685B681D4A134095
:103EA80019007B685A6C7B681B680A435A607B68F8
:103EB8005A6C80235B039A420BD17B681B685B6852
:103EC800154A134019007B689A6C7B681B680A4383
:103ED8005A607B689B6A802213400BD07B681B6802
:103EE8005B680E4A134019007B68DA6C7B681B68B4
:103EF8000A435A60C046BD4602B080BDFF7FFFFF3F
:103F0800FFFFFDFFFFFFFEFFFFFFFBFFFFEFFFFFD0
:103F1800FFDFFFFFFFFFEFFFFFFF9FFFFFFFF7FF41
:103F280080B592B002AF78607B68902200219950EA
:103F3800FDF78EFC0300FB637B681B681B68082287
:103F48001340082B2DD1FB6B802291037868474AD8
:103F58000092002200F08EF8031E22D0EFF31083A7
:103F68007B627B6ABB630123BB62BB6A83F31088F5
:103F7800C0467B681B681A687B681B6880218A4377
:103F88001A60BB6BFB62FB6A83F31088C0467B68D0
:103F98008822202199507B68842200219954032388
:103FA80060E07B681B681B6804221340042B46D121
:103FB800FB6B8022D10378682C4A0092002200F023
:103FC80059F8031E3BD0EFF31083FB60FB687B635B
:103FD80001233B613B6983F31088C0467B681B68FB
:103FE8001A687B681B6822490A401A607B6B7B61F0
:103FF8007B6983F31088C046EFF31083BB61BB690C
:104008003B630123FB61FB6983F31088C0467B682F
:104018001B689A687B681B6801218A439A603B6B1E
:104028003B623B6A83F31088C0467B688C22202160
:1040380099507B68842200219954032312E07B68FD
:104048008822202199507B688C22202199507B68F6
:104058000022DA667B6800221A677B6884220021C6
:10406800995400231800BD4610B080BDFFFFFF0122
:10407800DFFEFFFF80B584B000AFF860B9603B6039
:10408800FB1D1A7051E0BB6901334ED0FDF7E0FB10
:1040980002003B68D31ABA699A4202D3BB69002B63
:1040A80001D1032351E0FB681B681B6804221340FD
:1040B8003BD0BB68802B38D0BB68402B35D0FB6821
:1040C8001B68DB6908221340082B11D1FB681B68A9
:1040D80008221A62FB68180000F03CF8FB6890227E
:1040E80008219950FB6884220021995401232CE06F
:1040F800FB681B68DA6980231B011A4080231B01B7
:104108009A4212D1FB681B68802212011A62FB686E
:10411800180000F01FF8FB68902220219950FB68D6
:1041280084220021995403230FE0FB681B68DB6994
:10413800BA681340BA68D31A5A425341DBB21A001C
:10414800FB1D1B789A429ED000231800BD4604B080
:1041580080BD000080B58EB000AF7860EFF31083AB
:104168007B617B697B630123BB61BB6983F3108837
:10417800C0467B681B681A687B681B6826490A402A
:104188001A607B6BFB61FB6983F31088C046EFF311
:1041980010833B623B6A3B6301237B627B6A83F348
:1041A8001088C0467B681B689A687B681B681B4937
:1041B8000A409A603B6BBB62BB6A83F31088C046B7
:1041C8007B68DB6E012B18D1EFF31083BB60BB68F3
:1041D800FB620123FB60FB6883F31088C0467B68A1
:1041E8001B681A687B681B6810218A431A60FB6A7F
:1041F8003B613B6983F31088C0467B688C22202191
:1042080099507B680022DA667B6800225A67C046AC
:10421800BD460EB080BDC046DFFEFFFFFEFFFFEFCC
:1042280080B584B000AF78607B689B6AFB60FB68F0
:104238005E2200219952FB68562200219952FB68A0
:104248001800FFF73BFCC046BD4604B080BD80B5F2
:104258008AB000AF78607B6888229B58212B4CD1AC
:104268007B6856229B5A9BB2002B32D1EFF3108306
:10427800BB60BB687B620123FB60FB6883F310882B
:10428800C0467B681B681A687B681B6880218A4364
:104298001A607B6A3B613B6983F31088C046EFF381
:1042A80010837B617B693B620123BB61BB6983F33C
:1042B8001088C0467B681B681A687B681B684021A9
:1042C8000A431A603B6AFB61FB6983F31088C046A6
:1042D80013E07B681B6D1A787B681B689A627B68A1
:1042E8001B6D5A1C7B681A657B6856229B5A9BB2C9
:1042F800013B99B27B6856229952C046BD460AB026
:1043080080BD80B58CB000AF78607B6888229B58F0
:10431800212B51D17B6856229B5A9BB2002B32D15C
:10432800EFF31083FB60FB68BB6201233B613B69D1
:1043380083F31088C0467B681B681A687B681B6813
:1043480080218A431A60BB6A7B617B6983F310888A
:10435800C046EFF31083BB61BB697B620123FB613D
:10436800FB6983F31088C0467B681B681A687B6802
:104378001B6840210A431A607B6A3B623B6A83F3ED
:104388001088C04618E07B681B6DFB62FB6A1B88BF
:104398001A007B681B68D205D20D9A627B681B6D78
:1043A8009A1C7B681A657B6856229B5A9BB2013B14
:1043B80099B27B6856229952C046BD460CB080BD62
:1043C80080B58CB000AF78607B6888229B58212B21
:1043D80065D12E23FB187A686A21525A1A8059E04F
:1043E8007B6856229B5A9BB2002B33D1EFF3108384
:1043F800FB60FB68BB6201233B613B6983F3108868
:10440800C0467B681B689A687B681B6826490A4017
:104418009A60BB6A7B617B6983F31088C046EFF3BF
:104428001083BB61BB697B620123FB61FB6983F37A
:104438001088C0467B681B681A687B681B68402127
:104448000A431A607B6A3B623B6A83F31088C04662
:10445800C04624E07B681B68DB698022134013D0C8
:104468007B681B6D1A787B681B689A627B681B6D7A
:104478005A1C7B681A657B6856229B5A9BB2013B83
:1044880099B27B68562299522E217B181A887B187C
:10449800013A1A802E23FB181B88002BA0D1C04696
:1044A800BD460CB080BDC046FFFF7FFF80B58CB015
:1044B80000AF78607B6888229B58212B6AD12E2315
:1044C800FB187A686A21525A1A805EE07B68562285
:1044D8009B5A9BB2002B33D1EFF31083BB60BB68B0
:1044E8007B620123FB60FB6883F31088C0467B680E
:1044F8001B689A687B681B6828490A409A607B6A2F
:104508003B613B6983F31088C046EFF310837B61FE
:104518007B693B620123BB61BB6983F31088C0469A
:104528007B681B681A687B681B6840210A431A600D
:104538003B6AFB61FB6983F31088C046C04629E0EB
:104548007B681B68DB698022134018D07B681B6D71
:10455800BB62BB6A1B881A007B681B68D205D20D38
:104568009A627B681B6D9A1C7B681A657B68562269
:104578009B5A9BB2013B99B27B68562299522E21D5
:104588007B181A887B18013A1A802E23FB181B887F
:10459800002B9BD1C046BD460CB080BDFFFF7FFFFE
:1045A80080B586B000AF7860EFF31083BB60BB685E
:1045B8007B610123FB60FB6883F31088C0467B683E
:1045C8001B681A687B681B6840218A431A607B69EC
:1045D8003B613B6983F31088C0467B6888222021B1
:1045E80099507B6800229A677B681800FCF71CFECC
:1045F800C046BD4606B080BD80B582B000AF7860C9
:10460800C046BD4602B080BD80B582B000AF7860BC
:10461800C046BD4602B080BD80B582B000AF7860AC
:10462800C046BD4602B080BD80B584B000AF78609A
:104638007B6884229B5C012B01D1022327E07B68E5
:104648008422012199547B688822242199507B680F
:104658001B681B68FB607B681B681A687B681B68A3
:1046680001218A431A60FB680B4A1340FB607B6890
:1046780000225A667B681B68FA681A607B68882281
:10468800202199507B688422002199540023180026
:10469800BD4604B080BDC046FFFFFFDF80B584B0D3
:1046A80000AF786039607B6884229B5C012B01D164
:1046B80002232EE07B688422012199547B6888229A
:1046C800242199507B681B681B68FB607B681B680A
:1046D8001A687B681B6801218A431A607B681B681B
:1046E8009B68DB00D9087B681B683A680A439A60B4
:1046F8007B68180000F054F87B681B68FA681A6039
:104708007B688822202199507B6884220021995453
:1047180000231800BD4604B080BD000080B584B0F9
:1047280000AF786039607B6884229B5C012B01D1E3
:1047380002232FE07B688422012199547B68882218
:10474800242199507B681B681B68FB607B681B6889
:104758001A687B681B6801218A431A607B681B689A
:104768009B680E4A134019007B681B683A680A4325
:104778009A607B68180000F013F87B681B68FA6879
:104788001A607B688822202199507B688422002146
:10479800995400231800BD4604B080BDFFFFFFF107
:1047A800F0B585B000AF78607B685B6E002B08D1F0
:1047B8007B686A22012199527B68682201219952FB
:1047C80043E00F26BB1908221A700E203B18082256
:1047D8001A707B681B689B685B0EDAB20D243B1964
:1047E80007210A401A707B681B689B685B0FDAB266
:1047F8000C257B1907210A401A703B181B787A1977
:10480800127814498A5C5A4310007B191B78124AA3
:10481800D35C1900FBF704FD030099B27B686A2298
:104828009952BB191B783A1912780A498A5C5A437B
:1048380010003B191B78084AD35C1900FBF7F0FC01
:10484800030099B27B6868229952C046BD4605B0FC
:10485800F0BDC046B4540008BC54000830B505008B
:10486800140008001A009BB0002C05DA8B230120E5
:104878002B6040421BB030BD822369469B008B8170
:1048880000210090199104908C4200D0611E0123F0
:104898000291059169465B42CB8128001E9B00F07E
:1048A800B1F9431C01DA8B232B60002CE2D00022E3
:1048B800009B1A70DEE7000013B5044C0093130048
:1048C8000A0001002068FFF7C9FF16BD1C00002080
:1048D80003008218934200D1704719700133F9E739
:1048E800014B18687047C0461C00002070B50026B0
:1048F8000C4C0D4D641BA410A64209D1002600F0F3
:1049080063FC0A4C0A4D641BA410A64205D170BD75
:10491800B300EB5898470136EEE7B300EB589847D9
:104928000136F2E7F8540008F8540008FC5400086F
:10493800F854000870477047002310B59A4200D118
:1049480010BDCC5CC4540133F8E7000070B5050015
:104958000C1E10D0043C2368002B00DAE418280051
:1049680000F0E0F81D4A1368002B05D1636014605D
:10497800280000F0DFF870BDA34208D9206821188C
:104988008B42F3D119685B6809182160EEE71A00B9
:104998005B68002B01D0A342F9D911685018A042D6
:1049A8000BD120680918501811608342E0D11868AB
:1049B8005B68411811605360DAE7A04202D90C2302
:1049C8002B60D5E7206821188B4203D119685B68F2
:1049D8000918216063605460CAE7C0463C0400209F
:1049E80070B50F4E0D0031680400002902D100F0A7
:1049F80095FB30602900200000F090FB431C03D198
:104A080001256D42280070BD0323C51C9D43A842A3
:104A1800F8D0291A200000F081FB0130F2D1EFE72D
:104A280038040020F7B50322CB1C93430833050054
:104A38001F000C2B34D20C27B94233D8280000F0C1
:104A480071F8374E33681C00002C2FD1390028002C
:104A5800FFF7C6FF0400431C5FD134680094009B35
:104A6800002B4AD1002C52D023682800E318009963
:104A7800019300F053FB019B834248D1236828002F
:104A8800FF1A3900FFF7ACFF013040D02368DB196B
:104A9800236033685A68002A33D1009B336019E0D9
:104AA800002BC9DA0C232B600020FEBD2168C91B2E
:104AB80020D40B290AD9E2192760A34204D1326015
:104AC80063681160536005E05A60F9E76268A342C1
:104AD8000ED13260280000F02DF8200007220B309C
:104AE800231D9043C21A9842DFD01B1AA350DCE75B
:104AF8005A60EFE723006468A6E7009C63680093A8
:104B0800ADE71A005B68A342FBD10023DAE70C2368
:104B180028002B6000F00EF8C6E70760DAE7C04609
:104B28003C04002010B50248FFF704FF10BDC04642
:104B38003404002010B50248FFF7FDFE10BDC04642
:104B480034040020F0B58E6885B01F000C000B6897
:104B580002900392BE4230D80C21625E9021C900B7
:104B68000A4228D0032021695B1A019363694343F1
:104B78000198DD0FED187B1C1B186D10AB4200D996
:104B88001D00520528D529000298FFF74BFF061E85
:104B98002CD0019A2169FFF7CFFEA289184B1A4041
:104BA80080231343A381019B2661F61826603E00EB
:104BB8006561ED1AA560BE4200D93E003200039936
:104BC800206800F099FA0020A3689B1BA360236863
:104BD8009B19236005B0F0BD2A00029800F0BBFACB
:104BE800061EE0D121690298FFF7B0FE0C230120D0
:104BF800029A40421360A28934331343A381E9E740
:104C08007FFBFFFFF0B5A1B003901D008B890F005B
:104C180016001B0611D50B69002B0ED14021FFF79A
:104C280001FF38603861002805D10C23039A13600E
:104C380001204042CFE040237B61002308AC636140
:104C4800203363761033A376079535002B78002B35
:104C580001D0252B48D1AB1B0593B5420BD03200B0
:104C680039000398FFF76EFF013000D1AEE06369A9
:104C7800059A9B1863612B78002B00D1A6E00122CE
:104C880000235242626004A9543252186E1C2360F9
:104C9800E360A3601370A365544B052218003178B4
:104CA800059300F04DFA751C00281FD12268D30621
:104CB80004D5532304A95B1820211970130704D5C0
:104CC800532304A95B182B21197033782A2B16D08B
:104CD800350000210A20E3682A786E1C303A092A38
:104CE80050D9002911D117E00135AFE7059B22689B
:104CF800C01A0123834013432E002360CCE7079B8F
:104D0800191D1B680791002B01DB0B9304E05B4224
:104D1800E3600223134323602B782E2B0CD16B788E
:104D28002A2B34D1079B02351A1D1B680792002BCA
:104D380001DA01235B4209932D4E032230002978C2
:104D480000F0FEF9002806D04023801B834022682B
:104D58000135134323602978062226486E1C2176E4
:104D680000F0EEF9002838D0234B002B22D107227F
:104D7800079B07339343083307936369049A9B1887
:104D8800636162E74343350001219B18A4E70023D0
:104D98000A201900013563602A786E1C303A092A06
:104DA80003D9002BC8D00991C6E741433500012338
:104DB8008918F1E707AA009221003A000F4B0398DF
:104DC80000E000BF0490049B0133D6D1BB890D9845
:104DD8005B0600D52CE721B0F0BD07AA00922100A0
:104DE8003A00064B039800F07BF8EBE7C454000840
:104DF800CA540008CE540008000000004D4B0008BB
:104E0800F7B5160001938A680B690C00009093426D
:104E180000DA13002200336043321278002A01D0EE
:104E28000133336023689B0602D53368023333604D
:104E38002268062315001D401A4227D02300433359
:104E48001B785A1E93412268920630D42200019999
:104E58000098089D4332A847013025D006222368D0
:104E680000251340042B05D13368E568ED1AEB43A0
:104E7800DB171D40A3682269934201DD9B1AED18D8
:104E88000026B54220D1002010E00135E3683268E1
:104E98009B1AAB42D2DD2200012301990098089F9A
:104EA8001932B8470130F0D101204042FEBD302010
:104EB800E1184331087021005A1C45310978A218BD
:104EC800433202331170C1E722000123019900988F
:104ED800089F1A32B8470130E6D00136D1E7000002
:104EE800F0B58BB006920A004332079305900392FF
:104EF8000A7E0C00109B782A09D8622A0BD8002A4F
:104F080000D1BAE07A490491582A00D18EE02500F0
:104F180042352A7022E0100063381528F7D8FBF7CD
:104F2800EBF816001F00F6FFF6FFF6FFF6FF1F006E
:104F3800F6FFF6FFF6FFF6FF9F0036007E00F6FF4D
:104F4800F6FFB000F6FF3600F6FFF6FF82002500F8
:104F58001A684235111D196013682B7001239EE0F1
:104F680018680968021D0D060BD506681A60002E20
:104F780003DA2D23039A764213705D4B0A270493B4
:104F880018E006681A604906F1D536B2EFE70868F6
:104F9800196840C9050602D4400600D5B6B21960A2
:104FA800534B0A2704936F2A00D1023F23000022A3
:104FB80043331A706368A360002B06DB0421226860
:104FC800039D8A43226033430CD0039D300039008F
:104FD800FBF722F9049B013D5B5C2B703300060054
:104FE8009F42F3D9082F09D12368DB0706D56268E9
:104FF80023699A4202DC3023013D2B70039B5B1B23
:105008002361079B210000930598069B09AAFFF7D7
:10501800F7FE013048D1012040420BB0F0BD2022FC
:1050280009680A43226078223249049121004531F7
:105038000A701968226840C9100602D4500600D5C3
:10504800B6B21960D30702D5202313432360002E7C
:1050580001D01027AAE72022236893432360F8E7AA
:105068001A680D68101D4969186013682E0601D565
:10507800196002E06D06FBD519800023039D2361AA
:10508800BFE71A68111D19601568002128006268B9
:1050980000F056F8002801D0401B60606368236167
:1050A8000023039A1370ACE72A0023690699059830
:1050B800079DA8470130AED023689B0715D4099BEC
:1050C800E0689842A9DA1800A7E7220001230699A8
:1050D8000598079E1932B04701309CD00135E36826
:1050E800099A9B1AAB42F0DCE9E70025F7E7C046CE
:1050F800D5540008E654000810B5884202D98B1828
:10510800984208D300239A4207D0CC5CC454013398
:10511800F9E78B5C8354013AFBD210BD002370B5CC
:10512800064D040008002B60FCF7A6F9431C03D1C8
:105138002B68002B00D0236070BDC04630040020CF
:10514800C9B28218904201D10020704703788B427F
:10515800FBD00130F6E7F7B506000C001500002972
:1051680005D11100FFF75EFC04002000FEBD002AF7
:1051780003D1FFF7EBFB2C00F7E700F01CF8070062
:10518800854202D84308AB42EFD329003000FFF72D
:1051980049FC0190002801D1019CE6E72A00BD42A4
:1051A80000D93A0021000198FFF7C6FB2100300022
:1051B800FFF7CCFBF0E70B1F1B68181F002B01DA69
:1051C8000B58C01870470000F8B5C046F8BC08BCBA
:1051D8009E467047F8B5C046F8BC08BC9E46704766
:1051E80001B40248844601BC604700BF6D0000203E
:1051F8002573000057656C636F6D6520776177656F
:10520800726F49540D0A0000496E69636A616C69DE
:105218007A61636A6120466C617368206E696520F3
:105228007564616E612E2E2E0D0A000041432052D6
:10523800656C61793A2044697361626C65200D0A76
:105248000000000041432052656C61793A20456EA8
:1052580061626C65200D0A004F64637A7974616E2F
:10526800652064616E652E4B657950726573736550
:1052780064436F756E743A2025640D0A00000000BF
:105288004F64637A7974616E792064616E652E4C1F
:105298006F774C6576656C576173526561636865B5
:1052A800643A2025640D0A00476F696E6720746FA1
:1052B80020736C656570206D6F6465210D0A0000B0
:1052C8004B657920707265737365640D0A00000080
:1052D800466C6F617453656E736F722052657365A7
:1052E8007420210D0A000000426C6164207A61700C
:1052F800697375204B657950726573736564436F84
:10530800756E74210D0A0000426C6164207A617028
:10531800697375204C6F774C6576656C576173526D
:10532800656163686564210D0A000000466C6F6161
:105338007453656E736F72204C6F77204C65766579
:105348006C20210D0A0000005374616E20776F6491
:10535800793A204E49534B49200D0A004F64637A2D
:105368007974207A2070616D6965636920666C6163
:105378007368206E6120737461726369652E2E2EC6
:105388000D0A0000426C6164206F64637A79747559
:10539800206E612073746172636965206C75622088
:1053A8006272616B204D4147494320E28093206936
:1053B8006E69636A616C697A61636A6120646F6DA2
:1053C80079736C6E612E0D0A00000000426C6164F6
:1053D800207A6170697375210D0A00005A6170693D
:1053E8007320646F6D79736C6E796368207761726E
:1053F800746F73636920646F20666C617368206FD3
:105408006B2E0D0A000000004F64637A7974206ED9
:10541800612073746172636965206F6B2E0D0A00D9
:105428004D616769632064617461206F6B2E0D0A9A
:105438000000000000000000000000000000000064
:105448000000000000000000000000000000000054
:10545800000000000100000002000000030000003E
:10546800040000000600000007000000080000001B
:10547800090000000000000000000000000000001B
:10548800000000000100000002000000030000000E
:1054980004000000010002000400060008000A00E1
:1054A8000C001000200040008000000101010103F1
:1054B800070100000804020408010101232D302B14
:1054C8002000686C4C0065666745464700303132FD
:1054D8003334353637383941424344454600303154
:1054E80032333435363738396162636465660000B3
:0454F800E1000008C7
:0454FC00B9000008EB
:10550000010000000110021003100100E803000078
:105510000024F4000400000001000000200000202E
:1055200000000000F802002060030020C8030020F3
:10553000000000000000000000000000000000006B
:10554000000000000000000000000000000000005B
:10555000000000000000000000000000000000004B
:1055600000000000000000000000000080B588B0CE
:1055700000AF786039601F23FB1800221A707B6827
:10558000BB613B687B611A4B5A69194B8021C90288
:105590000A435A61EFF31083FB60FB683B6172B60C
:1055A000C0460FE07A69BB6912681A607B690433F0
:1055B0007B61BB690433BB611F217B181A787B18A0
:1055C00001321A701F23FB181B783F2BEAD9C04603
:1055D000074B1A6980235B021340F9D13B69BB601A
:1055E000BB6883F31088C046C046BD4608B080BD86
:0455F0000020024055
:040000050800170DCB
:00000001FF
